{
  "_format": "hh-sol-artifact-1",
  "contractName": "ElectricLaneNFT",
  "sourceName": "contracts/ElectricLaneNFT.sol",
  "abi": [
    {
      "inputs": [],
      "stateMutability": "nonpayable",
      "type": "constructor"
    },
    {
      "anonymous": false,
      "inputs": [
        {
          "indexed": true,
          "internalType": "address",
          "name": "owner",
          "type": "address"
        },
        {
          "indexed": true,
          "internalType": "address",
          "name": "approved",
          "type": "address"
        },
        {
          "indexed": true,
          "internalType": "uint256",
          "name": "tokenId",
          "type": "uint256"
        }
      ],
      "name": "Approval",
      "type": "event"
    },
    {
      "anonymous": false,
      "inputs": [
        {
          "indexed": true,
          "internalType": "address",
          "name": "owner",
          "type": "address"
        },
        {
          "indexed": true,
          "internalType": "address",
          "name": "operator",
          "type": "address"
        },
        {
          "indexed": false,
          "internalType": "bool",
          "name": "approved",
          "type": "bool"
        }
      ],
      "name": "ApprovalForAll",
      "type": "event"
    },
    {
      "anonymous": false,
      "inputs": [
        {
          "indexed": false,
          "internalType": "address",
          "name": "sender",
          "type": "address"
        },
        {
          "indexed": false,
          "internalType": "uint256",
          "name": "tokenId",
          "type": "uint256"
        }
      ],
      "name": "NewElectricNFTMinted",
      "type": "event"
    },
    {
      "anonymous": false,
      "inputs": [
        {
          "indexed": true,
          "internalType": "address",
          "name": "from",
          "type": "address"
        },
        {
          "indexed": true,
          "internalType": "address",
          "name": "to",
          "type": "address"
        },
        {
          "indexed": true,
          "internalType": "uint256",
          "name": "tokenId",
          "type": "uint256"
        }
      ],
      "name": "Transfer",
      "type": "event"
    },
    {
      "inputs": [
        {
          "internalType": "address",
          "name": "to",
          "type": "address"
        },
        {
          "internalType": "uint256",
          "name": "tokenId",
          "type": "uint256"
        }
      ],
      "name": "approve",
      "outputs": [],
      "stateMutability": "nonpayable",
      "type": "function"
    },
    {
      "inputs": [
        {
          "internalType": "address",
          "name": "owner",
          "type": "address"
        }
      ],
      "name": "balanceOf",
      "outputs": [
        {
          "internalType": "uint256",
          "name": "",
          "type": "uint256"
        }
      ],
      "stateMutability": "view",
      "type": "function"
    },
    {
      "inputs": [
        {
          "internalType": "uint256",
          "name": "tokenId",
          "type": "uint256"
        }
      ],
      "name": "getApproved",
      "outputs": [
        {
          "internalType": "address",
          "name": "",
          "type": "address"
        }
      ],
      "stateMutability": "view",
      "type": "function"
    },
    {
      "inputs": [],
      "name": "getTotalNFTsMintedSoFar",
      "outputs": [
        {
          "internalType": "uint256",
          "name": "",
          "type": "uint256"
        }
      ],
      "stateMutability": "view",
      "type": "function"
    },
    {
      "inputs": [
        {
          "internalType": "address",
          "name": "owner",
          "type": "address"
        },
        {
          "internalType": "address",
          "name": "operator",
          "type": "address"
        }
      ],
      "name": "isApprovedForAll",
      "outputs": [
        {
          "internalType": "bool",
          "name": "",
          "type": "bool"
        }
      ],
      "stateMutability": "view",
      "type": "function"
    },
    {
      "inputs": [],
      "name": "makeElectricNFT",
      "outputs": [],
      "stateMutability": "nonpayable",
      "type": "function"
    },
    {
      "inputs": [],
      "name": "name",
      "outputs": [
        {
          "internalType": "string",
          "name": "",
          "type": "string"
        }
      ],
      "stateMutability": "view",
      "type": "function"
    },
    {
      "inputs": [
        {
          "internalType": "uint256",
          "name": "tokenId",
          "type": "uint256"
        }
      ],
      "name": "ownerOf",
      "outputs": [
        {
          "internalType": "address",
          "name": "",
          "type": "address"
        }
      ],
      "stateMutability": "view",
      "type": "function"
    },
    {
      "inputs": [
        {
          "internalType": "uint256",
          "name": "tokenId",
          "type": "uint256"
        }
      ],
      "name": "pickRandomColor",
      "outputs": [
        {
          "internalType": "string",
          "name": "",
          "type": "string"
        }
      ],
      "stateMutability": "view",
      "type": "function"
    },
    {
      "inputs": [
        {
          "internalType": "uint256",
          "name": "tokenId",
          "type": "uint256"
        }
      ],
      "name": "pickRandomFirstWord",
      "outputs": [
        {
          "internalType": "string",
          "name": "",
          "type": "string"
        }
      ],
      "stateMutability": "view",
      "type": "function"
    },
    {
      "inputs": [
        {
          "internalType": "uint256",
          "name": "tokenId",
          "type": "uint256"
        }
      ],
      "name": "pickRandomSecondWord",
      "outputs": [
        {
          "internalType": "string",
          "name": "",
          "type": "string"
        }
      ],
      "stateMutability": "view",
      "type": "function"
    },
    {
      "inputs": [
        {
          "internalType": "uint256",
          "name": "tokenId",
          "type": "uint256"
        }
      ],
      "name": "pickRandomThirdWord",
      "outputs": [
        {
          "internalType": "string",
          "name": "",
          "type": "string"
        }
      ],
      "stateMutability": "view",
      "type": "function"
    },
    {
      "inputs": [
        {
          "internalType": "address",
          "name": "from",
          "type": "address"
        },
        {
          "internalType": "address",
          "name": "to",
          "type": "address"
        },
        {
          "internalType": "uint256",
          "name": "tokenId",
          "type": "uint256"
        }
      ],
      "name": "safeTransferFrom",
      "outputs": [],
      "stateMutability": "nonpayable",
      "type": "function"
    },
    {
      "inputs": [
        {
          "internalType": "address",
          "name": "from",
          "type": "address"
        },
        {
          "internalType": "address",
          "name": "to",
          "type": "address"
        },
        {
          "internalType": "uint256",
          "name": "tokenId",
          "type": "uint256"
        },
        {
          "internalType": "bytes",
          "name": "_data",
          "type": "bytes"
        }
      ],
      "name": "safeTransferFrom",
      "outputs": [],
      "stateMutability": "nonpayable",
      "type": "function"
    },
    {
      "inputs": [
        {
          "internalType": "address",
          "name": "operator",
          "type": "address"
        },
        {
          "internalType": "bool",
          "name": "approved",
          "type": "bool"
        }
      ],
      "name": "setApprovalForAll",
      "outputs": [],
      "stateMutability": "nonpayable",
      "type": "function"
    },
    {
      "inputs": [
        {
          "internalType": "bytes4",
          "name": "interfaceId",
          "type": "bytes4"
        }
      ],
      "name": "supportsInterface",
      "outputs": [
        {
          "internalType": "bool",
          "name": "",
          "type": "bool"
        }
      ],
      "stateMutability": "view",
      "type": "function"
    },
    {
      "inputs": [],
      "name": "symbol",
      "outputs": [
        {
          "internalType": "string",
          "name": "",
          "type": "string"
        }
      ],
      "stateMutability": "view",
      "type": "function"
    },
    {
      "inputs": [
        {
          "internalType": "uint256",
          "name": "tokenId",
          "type": "uint256"
        }
      ],
      "name": "tokenURI",
      "outputs": [
        {
          "internalType": "string",
          "name": "",
          "type": "string"
        }
      ],
      "stateMutability": "view",
      "type": "function"
    },
    {
      "inputs": [
        {
          "internalType": "address",
          "name": "from",
          "type": "address"
        },
        {
          "internalType": "address",
          "name": "to",
          "type": "address"
        },
        {
          "internalType": "uint256",
          "name": "tokenId",
          "type": "uint256"
        }
      ],
      "name": "transferFrom",
      "outputs": [],
      "stateMutability": "nonpayable",
      "type": "function"
    }
  ],
  "bytecode": "0x608060405260405180610160016040528061012f815260200162004db661012f9139600890805190602001906200003892919062000f53565b5060405180610100016040528060d3815260200162004ee560d39139600990805190602001906200006b92919062000f53565b5060405180608001604052806056815260200162004fb860569139600a90805190602001906200009d92919062000f53565b506040518061020001604052806040518060400160405280600481526020017f4b696c6c0000000000000000000000000000000000000000000000000000000081525081526020016040518060400160405280600581526020017f44616e636500000000000000000000000000000000000000000000000000000081525081526020016040518060400160405280600481526020017f4b6973730000000000000000000000000000000000000000000000000000000081525081526020016040518060400160405280600481526020017f54616b650000000000000000000000000000000000000000000000000000000081525081526020016040518060400160405280600481526020017f42656e640000000000000000000000000000000000000000000000000000000081525081526020016040518060400160405280600481526020017f486174650000000000000000000000000000000000000000000000000000000081525081526020016040518060400160405280600581526020017f4c6f6f736500000000000000000000000000000000000000000000000000000081525081526020016040518060400160405280600781526020017f526571756972650000000000000000000000000000000000000000000000000081525081526020016040518060400160405280600681526020017f426568696e64000000000000000000000000000000000000000000000000000081525081526020016040518060400160405280600381526020017f52756e000000000000000000000000000000000000000000000000000000000081525081526020016040518060400160405280600481526020017f4c6561640000000000000000000000000000000000000000000000000000000081525081526020016040518060400160405280600481526020017f4865616c0000000000000000000000000000000000000000000000000000000081525081526020016040518060400160405280600481526020017f5065656c0000000000000000000000000000000000000000000000000000000081525081526020016040518060400160405280600481526020017f4f7665720000000000000000000000000000000000000000000000000000000081525081526020016040518060400160405280600a81526020017f486f7272656e646f75730000000000000000000000000000000000000000000081525081526020016040518060400160405280600481526020017f4c6f726400000000000000000000000000000000000000000000000000000000815250815250600b9060106200046a92919062000fe4565b506040518061020001604052806040518060400160405280600481526020017f596f75720000000000000000000000000000000000000000000000000000000081525081526020016040518060400160405280600581526020017f546865697200000000000000000000000000000000000000000000000000000081525081526020016040518060400160405280600381526020017f4f7572000000000000000000000000000000000000000000000000000000000081525081526020016040518060400160405280600281526020017f4d7900000000000000000000000000000000000000000000000000000000000081525081526020016040518060400160405280600881526020017f50656c6963616e7300000000000000000000000000000000000000000000000081525081526020016040518060400160405280600381526020017f585858000000000000000000000000000000000000000000000000000000000081525081526020016040518060400160405280600481526020017f436174730000000000000000000000000000000000000000000000000000000081525081526020016040518060400160405280600881526020017f436869636b656e7300000000000000000000000000000000000000000000000081525081526020016040518060400160405280600681526020017f4c6f6f736572000000000000000000000000000000000000000000000000000081525081526020016040518060400160405280600481526020017f4e6572640000000000000000000000000000000000000000000000000000000081525081526020016040518060400160405280600681526020017f47656e697573000000000000000000000000000000000000000000000000000081525081526020016040518060400160405280600581526020017f4964696f7400000000000000000000000000000000000000000000000000000081525081526020016040518060400160405280600a81526020017f45766572797468696e670000000000000000000000000000000000000000000081525081526020016040518060400160405280600881526020017f546f67657468657200000000000000000000000000000000000000000000000081525081526020016040518060400160405280600681526020017f484148414841000000000000000000000000000000000000000000000000000081525081526020016040518060400160405280600781526020017f416e6369656e7400000000000000000000000000000000000000000000000000815250815250600c9060106200083792919062000fe4565b506040518061020001604052806040518060400160405280600681526020017f486174726564000000000000000000000000000000000000000000000000000081525081526020016040518060400160405280600481526020017f466163650000000000000000000000000000000000000000000000000000000081525081526020016040518060400160405280600481526020017f466f6f640000000000000000000000000000000000000000000000000000000081525081526020016040518060400160405280600581526020017f466c696e6700000000000000000000000000000000000000000000000000000081525081526020016040518060400160405280600481526020017f436974790000000000000000000000000000000000000000000000000000000081525081526020016040518060400160405280600381526020017f536578000000000000000000000000000000000000000000000000000000000081525081526020016040518060400160405280600881526020017f547261766573747900000000000000000000000000000000000000000000000081525081526020016040518060400160405280600381526020017f426564000000000000000000000000000000000000000000000000000000000081525081526020016040518060400160405280600781526020017f446f6f726e6f620000000000000000000000000000000000000000000000000081525081526020016040518060400160405280600581526020017f5461626c6500000000000000000000000000000000000000000000000000000081525081526020016040518060400160405280600481526020017f5261696e0000000000000000000000000000000000000000000000000000000081525081526020016040518060400160405280600881526020017f4d6f756e7461696e00000000000000000000000000000000000000000000000081525081526020016040518060400160405280600481526020017f48656c6c0000000000000000000000000000000000000000000000000000000081525081526020016040518060400160405280600681526020017f48656176656e000000000000000000000000000000000000000000000000000081525081526020016040518060400160405280600481526020017f686d6d6d0000000000000000000000000000000000000000000000000000000081525081526020016040518060400160405280600381526020017f7774660000000000000000000000000000000000000000000000000000000000815250815250600d90601062000c0492919062000fe4565b506040518060c001604052806040518060400160405280600381526020017f726564000000000000000000000000000000000000000000000000000000000081525081526020016040518060400160405280600781526020017f233038433241380000000000000000000000000000000000000000000000000081525081526020016040518060400160405280600581526020017f626c61636b00000000000000000000000000000000000000000000000000000081525081526020016040518060400160405280600681526020017f79656c6c6f77000000000000000000000000000000000000000000000000000081525081526020016040518060400160405280600481526020017f626c75650000000000000000000000000000000000000000000000000000000081525081526020016040518060400160405280600581526020017f677265656e000000000000000000000000000000000000000000000000000000815250815250600e90600662000d829291906200104b565b506032600f5534801562000d9557600080fd5b506040518060400160405280600e81526020017f52616e646f6d576f7264735945410000000000000000000000000000000000008152506040518060400160405280600681526020017f52414e444f4d0000000000000000000000000000000000000000000000000000815250816000908051906020019062000e1a92919062000f53565b50806001908051906020019062000e3392919062000f53565b50505062000e816040518060400160405280601e81526020017f54686973206973206d79204e465420636f6e74726163742e2057686f6121000081525062000e8760201b620012b21760201c565b6200126c565b62000f278160405160240162000e9e919062001180565b6040516020818303038152906040527f41304fac000000000000000000000000000000000000000000000000000000007bffffffffffffffffffffffffffffffffffffffffffffffffffffffff19166020820180517bffffffffffffffffffffffffffffffffffffffffffffffffffffffff838183161783525050505062000f2a60201b60201c565b50565b60008151905060006a636f6e736f6c652e6c6f679050602083016000808483855afa5050505050565b82805462000f6190620011f6565b90600052602060002090601f01602090048101928262000f85576000855562000fd1565b82601f1062000fa057805160ff191683800117855562000fd1565b8280016001018555821562000fd1579182015b8281111562000fd057825182559160200191906001019062000fb3565b5b50905062000fe09190620010b2565b5090565b82805482825590600052602060002090810192821562001038579160200282015b82811115620010375782518290805190602001906200102692919062000f53565b509160200191906001019062001005565b5b509050620010479190620010d1565b5090565b8280548282559060005260206000209081019282156200109f579160200282015b828111156200109e5782518290805190602001906200108d92919062000f53565b50916020019190600101906200106c565b5b509050620010ae9190620010d1565b5090565b5b80821115620010cd576000816000905550600101620010b3565b5090565b5b80821115620010f55760008181620010eb9190620010f9565b50600101620010d2565b5090565b5080546200110790620011f6565b6000825580601f106200111b57506200113c565b601f0160209004906000526020600020908101906200113b9190620010b2565b5b50565b60006200114c82620011a4565b620011588185620011af565b93506200116a818560208601620011c0565b62001175816200125b565b840191505092915050565b600060208201905081810360008301526200119c81846200113f565b905092915050565b600081519050919050565b600082825260208201905092915050565b60005b83811015620011e0578082015181840152602081019050620011c3565b83811115620011f0576000848401525b50505050565b600060028204905060018216806200120f57607f821691505b602082108114156200122657620012256200122c565b5b50919050565b7f4e487b7100000000000000000000000000000000000000000000000000000000600052602260045260246000fd5b6000601f19601f8301169050919050565b613b3a806200127c6000396000f3fe608060405234801561001057600080fd5b50600436106101215760003560e01c80636352211e116100ad578063b187301f11610071578063b187301f1461031a578063b88d4fde1461034a578063c575757a14610366578063c87b56dd14610396578063e985e9c5146103c657610121565b80636352211e1461027657806370a08231146102a65780637423092d146102d657806395d89b41146102e0578063a22cb465146102fe57610121565b8063095ea7b3116100f4578063095ea7b3146101c257806323b872dd146101de5780632de38d68146101fa57806342842e0e1461022a578063514dc8c61461024657610121565b806301ffc9a714610126578063060475901461015657806306fdde0314610174578063081812fc14610192575b600080fd5b610140600480360381019061013b91906126b2565b6103f6565b60405161014d9190613390565b60405180910390f35b61015e6104d8565b60405161016b919061362b565b60405180910390f35b61017c6104e9565b60405161018991906133ab565b60405180910390f35b6101ac60048036038101906101a79190612704565b61057b565b6040516101b99190613300565b60405180910390f35b6101dc60048036038101906101d79190612676565b610600565b005b6101f860048036038101906101f39190612570565b610718565b005b610214600480360381019061020f9190612704565b610778565b60405161022191906133ab565b60405180910390f35b610244600480360381019061023f9190612570565b610896565b005b610260600480360381019061025b9190612704565b6108b6565b60405161026d91906133ab565b60405180910390f35b610290600480360381019061028b9190612704565b6109d4565b60405161029d9190613300565b60405180910390f35b6102c060048036038101906102bb919061250b565b610a86565b6040516102cd919061362b565b60405180910390f35b6102de610b3e565b005b6102e8610d86565b6040516102f591906133ab565b60405180910390f35b6103186004803603810190610313919061263a565b610e18565b005b610334600480360381019061032f9190612704565b610e2e565b60405161034191906133ab565b60405180910390f35b610364600480360381019061035f91906125bf565b610f4c565b005b610380600480360381019061037b9190612704565b610fae565b60405161038d91906133ab565b60405180910390f35b6103b060048036038101906103ab9190612704565b6110cc565b6040516103bd91906133ab565b60405180910390f35b6103e060048036038101906103db9190612534565b61121e565b6040516103ed9190613390565b60405180910390f35b60007f80ac58cd000000000000000000000000000000000000000000000000000000007bffffffffffffffffffffffffffffffffffffffffffffffffffffffff1916827bffffffffffffffffffffffffffffffffffffffffffffffffffffffff191614806104c157507f5b5e139f000000000000000000000000000000000000000000000000000000007bffffffffffffffffffffffffffffffffffffffffffffffffffffffff1916827bffffffffffffffffffffffffffffffffffffffffffffffffffffffff1916145b806104d157506104d08261134b565b5b9050919050565b60006104e460076113b5565b905090565b6060600080546104f8906138ca565b80601f0160208091040260200160405190810160405280929190818152602001828054610524906138ca565b80156105715780601f1061054657610100808354040283529160200191610571565b820191906000526020600020905b81548152906001019060200180831161055457829003601f168201915b5050505050905090565b6000610586826113c3565b6105c5576040517f08c379a00000000000000000000000000000000000000000000000000000000081526004016105bc9061358b565b60405180910390fd5b6004600083815260200190815260200160002060009054906101000a900473ffffffffffffffffffffffffffffffffffffffff169050919050565b600061060b826109d4565b90508073ffffffffffffffffffffffffffffffffffffffff168373ffffffffffffffffffffffffffffffffffffffff16141561067c576040517f08c379a0000000000000000000000000000000000000000000000000000000008152600401610673906135eb565b60405180910390fd5b8073ffffffffffffffffffffffffffffffffffffffff1661069b61142f565b73ffffffffffffffffffffffffffffffffffffffff1614806106ca57506106c9816106c461142f565b61121e565b5b610709576040517f08c379a0000000000000000000000000000000000000000000000000000000008152600401610700906134cb565b60405180910390fd5b6107138383611437565b505050565b61072961072361142f565b826114f0565b610768576040517f08c379a000000000000000000000000000000000000000000000000000000000815260040161075f9061360b565b60405180910390fd5b6107738383836115ce565b505050565b606060006107ac6107888461182a565b604051602001610798919061329a565b6040516020818303038152906040526119d7565b9050600b80549050816107bf9190613945565b9050600b81815481106107fb577f4e487b7100000000000000000000000000000000000000000000000000000000600052603260045260246000fd5b906000526020600020018054610810906138ca565b80601f016020809104026020016040519081016040528092919081815260200182805461083c906138ca565b80156108895780601f1061085e57610100808354040283529160200191610889565b820191906000526020600020905b81548152906001019060200180831161086c57829003601f168201915b5050505050915050919050565b6108b183838360405180602001604052806000815250610f4c565b505050565b606060006108ea6108c68461182a565b6040516020016108d691906132de565b6040516020818303038152906040526119d7565b9050600e80549050816108fd9190613945565b9050600e8181548110610939577f4e487b7100000000000000000000000000000000000000000000000000000000600052603260045260246000fd5b90600052602060002001805461094e906138ca565b80601f016020809104026020016040519081016040528092919081815260200182805461097a906138ca565b80156109c75780601f1061099c576101008083540402835291602001916109c7565b820191906000526020600020905b8154815290600101906020018083116109aa57829003601f168201915b5050505050915050919050565b6000806002600084815260200190815260200160002060009054906101000a900473ffffffffffffffffffffffffffffffffffffffff169050600073ffffffffffffffffffffffffffffffffffffffff168173ffffffffffffffffffffffffffffffffffffffff161415610a7d576040517f08c379a0000000000000000000000000000000000000000000000000000000008152600401610a749061350b565b60405180910390fd5b80915050919050565b60008073ffffffffffffffffffffffffffffffffffffffff168273ffffffffffffffffffffffffffffffffffffffff161415610af7576040517f08c379a0000000000000000000000000000000000000000000000000000000008152600401610aee906134eb565b60405180910390fd5b600360008373ffffffffffffffffffffffffffffffffffffffff1673ffffffffffffffffffffffffffffffffffffffff168152602001908152602001600020549050919050565b600f54610b4b60076113b5565b1115610b8c576040517f08c379a0000000000000000000000000000000000000000000000000000000008152600401610b839061340b565b60405180910390fd5b6000610b9860076113b5565b90506000610ba582610778565b90506000610bb283610e2e565b90506000610bbf84610fae565b90506000838383604051602001610bd893929190613197565b60405160208183030381529060405290506000610bf4866108b6565b90506000600982600a85604051602001610c1194939291906131c8565b60405160208183030381529060405290506000610c5684610c3184611a0a565b604051602001610c42929190613255565b604051602081830303815290604052611a0a565b9050600081604051602001610c6b91906132bc565b6040516020818303038152906040529050610cba6040518060400160405280601581526020017f0a2d2d2d2d2d2d2d2d2d2d2d2d2d2d2d2d2d2d2d2d00000000000000000000008152506112b2565b610cc3816112b2565b610d016040518060400160405280601581526020017f2d2d2d2d2d2d2d2d2d2d2d2d2d2d2d2d2d2d2d2d0a00000000000000000000008152506112b2565b610d0b338a611bc8565b610d158982611be6565b610d38604051806060016040528060258152602001613aa0602591398a33611c5a565b610d426007611cf9565b7f8a39ead3330cc980e11c8e2d8245c3f957071a9107c904ae093d01928ea25dac338a604051610d73929190613367565b60405180910390a1505050505050505050565b606060018054610d95906138ca565b80601f0160208091040260200160405190810160405280929190818152602001828054610dc1906138ca565b8015610e0e5780601f10610de357610100808354040283529160200191610e0e565b820191906000526020600020905b815481529060010190602001808311610df157829003601f168201915b5050505050905090565b610e2a610e2361142f565b8383611d0f565b5050565b60606000610e62610e3e8461182a565b604051602001610e4e9190613233565b6040516020818303038152906040526119d7565b9050600c8054905081610e759190613945565b9050600c8181548110610eb1577f4e487b7100000000000000000000000000000000000000000000000000000000600052603260045260246000fd5b906000526020600020018054610ec6906138ca565b80601f0160208091040260200160405190810160405280929190818152602001828054610ef2906138ca565b8015610f3f5780601f10610f1457610100808354040283529160200191610f3f565b820191906000526020600020905b815481529060010190602001808311610f2257829003601f168201915b5050505050915050919050565b610f5d610f5761142f565b836114f0565b610f9c576040517f08c379a0000000000000000000000000000000000000000000000000000000008152600401610f939061360b565b60405180910390fd5b610fa884848484611e7c565b50505050565b60606000610fe2610fbe8461182a565b604051602001610fce9190613211565b6040516020818303038152906040526119d7565b9050600d8054905081610ff59190613945565b9050600d8181548110611031577f4e487b7100000000000000000000000000000000000000000000000000000000600052603260045260246000fd5b906000526020600020018054611046906138ca565b80601f0160208091040260200160405190810160405280929190818152602001828054611072906138ca565b80156110bf5780601f10611094576101008083540402835291602001916110bf565b820191906000526020600020905b8154815290600101906020018083116110a257829003601f168201915b5050505050915050919050565b60606110d7826113c3565b611116576040517f08c379a000000000000000000000000000000000000000000000000000000000815260040161110d9061356b565b60405180910390fd5b6000600660008481526020019081526020016000208054611136906138ca565b80601f0160208091040260200160405190810160405280929190818152602001828054611162906138ca565b80156111af5780601f10611184576101008083540402835291602001916111af565b820191906000526020600020905b81548152906001019060200180831161119257829003601f168201915b5050505050905060006111c0611ed8565b90506000815114156111d6578192505050611219565b60008251111561120b5780826040516020016111f3929190613173565b60405160208183030381529060405292505050611219565b61121484611eef565b925050505b919050565b6000600560008473ffffffffffffffffffffffffffffffffffffffff1673ffffffffffffffffffffffffffffffffffffffff16815260200190815260200160002060008373ffffffffffffffffffffffffffffffffffffffff1673ffffffffffffffffffffffffffffffffffffffff16815260200190815260200160002060009054906101000a900460ff16905092915050565b611348816040516024016112c691906133ab565b6040516020818303038152906040527f41304fac000000000000000000000000000000000000000000000000000000007bffffffffffffffffffffffffffffffffffffffffffffffffffffffff19166020820180517bffffffffffffffffffffffffffffffffffffffffffffffffffffffff8381831617835250505050611f96565b50565b60007f01ffc9a7000000000000000000000000000000000000000000000000000000007bffffffffffffffffffffffffffffffffffffffffffffffffffffffff1916827bffffffffffffffffffffffffffffffffffffffffffffffffffffffff1916149050919050565b600081600001549050919050565b60008073ffffffffffffffffffffffffffffffffffffffff166002600084815260200190815260200160002060009054906101000a900473ffffffffffffffffffffffffffffffffffffffff1673ffffffffffffffffffffffffffffffffffffffff1614159050919050565b600033905090565b816004600083815260200190815260200160002060006101000a81548173ffffffffffffffffffffffffffffffffffffffff021916908373ffffffffffffffffffffffffffffffffffffffff160217905550808273ffffffffffffffffffffffffffffffffffffffff166114aa836109d4565b73ffffffffffffffffffffffffffffffffffffffff167f8c5be1e5ebec7d5bd14f71427d1e84f3dd0314c0f7b2291e5b200ac8c7c3b92560405160405180910390a45050565b60006114fb826113c3565b61153a576040517f08c379a0000000000000000000000000000000000000000000000000000000008152600401611531906134ab565b60405180910390fd5b6000611545836109d4565b90508073ffffffffffffffffffffffffffffffffffffffff168473ffffffffffffffffffffffffffffffffffffffff1614806115b457508373ffffffffffffffffffffffffffffffffffffffff1661159c8461057b565b73ffffffffffffffffffffffffffffffffffffffff16145b806115c557506115c4818561121e565b5b91505092915050565b8273ffffffffffffffffffffffffffffffffffffffff166115ee826109d4565b73ffffffffffffffffffffffffffffffffffffffff1614611644576040517f08c379a000000000000000000000000000000000000000000000000000000000815260040161163b906135ab565b60405180910390fd5b600073ffffffffffffffffffffffffffffffffffffffff168273ffffffffffffffffffffffffffffffffffffffff1614156116b4576040517f08c379a00000000000000000000000000000000000000000000000000000000081526004016116ab9061346b565b60405180910390fd5b6116bf838383611fbf565b6116ca600082611437565b6001600360008573ffffffffffffffffffffffffffffffffffffffff1673ffffffffffffffffffffffffffffffffffffffff168152602001908152602001600020600082825461171a91906137e0565b925050819055506001600360008473ffffffffffffffffffffffffffffffffffffffff1673ffffffffffffffffffffffffffffffffffffffff168152602001908152602001600020600082825461177191906136ff565b92505081905550816002600083815260200190815260200160002060006101000a81548173ffffffffffffffffffffffffffffffffffffffff021916908373ffffffffffffffffffffffffffffffffffffffff160217905550808273ffffffffffffffffffffffffffffffffffffffff168473ffffffffffffffffffffffffffffffffffffffff167fddf252ad1be2c89b69c2b068fc378daa952ba7f163c4a11628f55a4df523b3ef60405160405180910390a4505050565b60606000821415611872576040518060400160405280600181526020017f300000000000000000000000000000000000000000000000000000000000000081525090506119d2565b600082905060005b600082146118a457808061188d906138fc565b915050600a8261189d9190613755565b915061187a565b60008167ffffffffffffffff8111156118e6577f4e487b7100000000000000000000000000000000000000000000000000000000600052604160045260246000fd5b6040519080825280601f01601f1916602001820160405280156119185781602001600182028036833780820191505090505b5090505b600085146119cb5760018261193191906137e0565b9150600a856119409190613945565b603061194c91906136ff565b60f81b818381518110611988577f4e487b7100000000000000000000000000000000000000000000000000000000600052603260045260246000fd5b60200101907effffffffffffffffffffffffffffffffffffffffffffffffffffffffffffff1916908160001a905350600a856119c49190613755565b945061191c565b8093505050505b919050565b6000816040516020016119ea919061315c565b6040516020818303038152906040528051906020012060001c9050919050565b60606000825190506000811415611a335760405180602001604052806000815250915050611bc3565b60006003600283611a4491906136ff565b611a4e9190613755565b6004611a5a9190613786565b90506000602082611a6b91906136ff565b67ffffffffffffffff811115611aaa577f4e487b7100000000000000000000000000000000000000000000000000000000600052604160045260246000fd5b6040519080825280601f01601f191660200182016040528015611adc5781602001600182028036833780820191505090505b5090506000604051806060016040528060408152602001613ac5604091399050600181016020830160005b86811015611b805760038101905062ffffff818a015116603f8160121c168401518060081b905060ff603f83600c1c1686015116810190508060081b905060ff603f8360061c1686015116810190508060081b905060ff603f831686015116810190508060e01b90508084526004840193505050611b07565b506003860660018114611b9a5760028114611baa57611bb5565b613d3d60f01b6002830352611bb5565b603d60f81b60018303525b508484525050819450505050505b919050565b611be2828260405180602001604052806000815250611fc4565b5050565b611bef826113c3565b611c2e576040517f08c379a0000000000000000000000000000000000000000000000000000000008152600401611c259061352b565b60405180910390fd5b80600660008481526020019081526020016000209080519060200190611c55929190612397565b505050565b611cf4838383604051602401611c72939291906133cd565b6040516020818303038152906040527fe3849f79000000000000000000000000000000000000000000000000000000007bffffffffffffffffffffffffffffffffffffffffffffffffffffffff19166020820180517bffffffffffffffffffffffffffffffffffffffffffffffffffffffff8381831617835250505050611f96565b505050565b6001816000016000828254019250508190555050565b8173ffffffffffffffffffffffffffffffffffffffff168373ffffffffffffffffffffffffffffffffffffffff161415611d7e576040517f08c379a0000000000000000000000000000000000000000000000000000000008152600401611d759061348b565b60405180910390fd5b80600560008573ffffffffffffffffffffffffffffffffffffffff1673ffffffffffffffffffffffffffffffffffffffff16815260200190815260200160002060008473ffffffffffffffffffffffffffffffffffffffff1673ffffffffffffffffffffffffffffffffffffffff16815260200190815260200160002060006101000a81548160ff0219169083151502179055508173ffffffffffffffffffffffffffffffffffffffff168373ffffffffffffffffffffffffffffffffffffffff167f17307eab39ab6107e8899845ad3d59bd9653f200f220920489ca2b5937696c3183604051611e6f9190613390565b60405180910390a3505050565b611e878484846115ce565b611e938484848461201f565b611ed2576040517f08c379a0000000000000000000000000000000000000000000000000000000008152600401611ec99061342b565b60405180910390fd5b50505050565b606060405180602001604052806000815250905090565b6060611efa826113c3565b611f39576040517f08c379a0000000000000000000000000000000000000000000000000000000008152600401611f30906135cb565b60405180910390fd5b6000611f43611ed8565b90506000815111611f635760405180602001604052806000815250611f8e565b80611f6d8461182a565b604051602001611f7e929190613173565b6040516020818303038152906040525b915050919050565b60008151905060006a636f6e736f6c652e6c6f679050602083016000808483855afa5050505050565b505050565b611fce83836121b6565b611fdb600084848461201f565b61201a576040517f08c379a00000000000000000000000000000000000000000000000000000000081526004016120119061342b565b60405180910390fd5b505050565b60006120408473ffffffffffffffffffffffffffffffffffffffff16612384565b156121a9578373ffffffffffffffffffffffffffffffffffffffff1663150b7a0261206961142f565b8786866040518563ffffffff1660e01b815260040161208b949392919061331b565b602060405180830381600087803b1580156120a557600080fd5b505af19250505080156120d657506040513d601f19601f820116820180604052508101906120d391906126db565b60015b612159573d8060008114612106576040519150601f19603f3d011682016040523d82523d6000602084013e61210b565b606091505b50600081511415612151576040517f08c379a00000000000000000000000000000000000000000000000000000000081526004016121489061342b565b60405180910390fd5b805181602001fd5b63150b7a0260e01b7bffffffffffffffffffffffffffffffffffffffffffffffffffffffff1916817bffffffffffffffffffffffffffffffffffffffffffffffffffffffff1916149150506121ae565b600190505b949350505050565b600073ffffffffffffffffffffffffffffffffffffffff168273ffffffffffffffffffffffffffffffffffffffff161415612226576040517f08c379a000000000000000000000000000000000000000000000000000000000815260040161221d9061354b565b60405180910390fd5b61222f816113c3565b1561226f576040517f08c379a00000000000000000000000000000000000000000000000000000000081526004016122669061344b565b60405180910390fd5b61227b60008383611fbf565b6001600360008473ffffffffffffffffffffffffffffffffffffffff1673ffffffffffffffffffffffffffffffffffffffff16815260200190815260200160002060008282546122cb91906136ff565b92505081905550816002600083815260200190815260200160002060006101000a81548173ffffffffffffffffffffffffffffffffffffffff021916908373ffffffffffffffffffffffffffffffffffffffff160217905550808273ffffffffffffffffffffffffffffffffffffffff16600073ffffffffffffffffffffffffffffffffffffffff167fddf252ad1be2c89b69c2b068fc378daa952ba7f163c4a11628f55a4df523b3ef60405160405180910390a45050565b600080823b905060008111915050919050565b8280546123a3906138ca565b90600052602060002090601f0160209004810192826123c5576000855561240c565b82601f106123de57805160ff191683800117855561240c565b8280016001018555821561240c579182015b8281111561240b5782518255916020019190600101906123f0565b5b509050612419919061241d565b5090565b5b8082111561243657600081600090555060010161241e565b5090565b600061244d61244884613677565b613646565b90508281526020810184848401111561246557600080fd5b612470848285613888565b509392505050565b60008135905061248781613a43565b92915050565b60008135905061249c81613a5a565b92915050565b6000813590506124b181613a71565b92915050565b6000815190506124c681613a71565b92915050565b600082601f8301126124dd57600080fd5b81356124ed84826020860161243a565b91505092915050565b60008135905061250581613a88565b92915050565b60006020828403121561251d57600080fd5b600061252b84828501612478565b91505092915050565b6000806040838503121561254757600080fd5b600061255585828601612478565b925050602061256685828601612478565b9150509250929050565b60008060006060848603121561258557600080fd5b600061259386828701612478565b93505060206125a486828701612478565b92505060406125b5868287016124f6565b9150509250925092565b600080600080608085870312156125d557600080fd5b60006125e387828801612478565b94505060206125f487828801612478565b9350506040612605878288016124f6565b925050606085013567ffffffffffffffff81111561262257600080fd5b61262e878288016124cc565b91505092959194509250565b6000806040838503121561264d57600080fd5b600061265b85828601612478565b925050602061266c8582860161248d565b9150509250929050565b6000806040838503121561268957600080fd5b600061269785828601612478565b92505060206126a8858286016124f6565b9150509250929050565b6000602082840312156126c457600080fd5b60006126d2848285016124a2565b91505092915050565b6000602082840312156126ed57600080fd5b60006126fb848285016124b7565b91505092915050565b60006020828403121561271657600080fd5b6000612724848285016124f6565b91505092915050565b61273681613814565b82525050565b61274581613826565b82525050565b6000612756826136bc565b61276081856136d2565b9350612770818560208601613897565b61277981613a32565b840191505092915050565b600061278f826136c7565b61279981856136e3565b93506127a9818560208601613897565b6127b281613a32565b840191505092915050565b60006127c8826136c7565b6127d281856136f4565b93506127e2818560208601613897565b80840191505092915050565b600081546127fb816138ca565b61280581866136f4565b94506001821660008114612820576001811461283157612864565b60ff19831686528186019350612864565b61283a856136a7565b60005b8381101561285c5781548189015260018201915060208101905061283d565b838801955050505b50505092915050565b600061287a6068836136f4565b91507f222c20226465736372697074696f6e223a20224120686967686c79206163636c60008301527f61696d656420636f6c6c656374696f6e206f662052616e646f6d20576f72647360208301527f2e222c2022696d616765223a2022646174613a696d6167652f7376672b786d6c60408301527f3b6261736536342c0000000000000000000000000000000000000000000000006060830152606882019050919050565b600061292c601f836136e3565b91507f4d6178696d756d204e756d626572206f66204e4654532773204d696e746564006000830152602082019050919050565b600061296c6032836136e3565b91507f4552433732313a207472616e7366657220746f206e6f6e20455243373231526560008301527f63656976657220696d706c656d656e74657200000000000000000000000000006020830152604082019050919050565b60006129d2601c836136e3565b91507f4552433732313a20746f6b656e20616c7265616479206d696e746564000000006000830152602082019050919050565b6000612a12600a836136f4565b91507f54484952445f574f5244000000000000000000000000000000000000000000006000830152600a82019050919050565b6000612a526024836136e3565b91507f4552433732313a207472616e7366657220746f20746865207a65726f2061646460008301527f72657373000000000000000000000000000000000000000000000000000000006020830152604082019050919050565b6000612ab86019836136e3565b91507f4552433732313a20617070726f766520746f2063616c6c6572000000000000006000830152602082019050919050565b6000612af8600b836136f4565b91507f5345434f4e445f574f52440000000000000000000000000000000000000000006000830152600b82019050919050565b6000612b38602c836136e3565b91507f4552433732313a206f70657261746f7220717565727920666f72206e6f6e657860008301527f697374656e7420746f6b656e00000000000000000000000000000000000000006020830152604082019050919050565b6000612b9e600d836136f4565b91507f3c2f746578743e3c2f7376673e000000000000000000000000000000000000006000830152600d82019050919050565b6000612bde6038836136e3565b91507f4552433732313a20617070726f76652063616c6c6572206973206e6f74206f7760008301527f6e6572206e6f7220617070726f76656420666f7220616c6c00000000000000006020830152604082019050919050565b6000612c44602a836136e3565b91507f4552433732313a2062616c616e636520717565727920666f7220746865207a6560008301527f726f2061646472657373000000000000000000000000000000000000000000006020830152604082019050919050565b6000612caa6029836136e3565b91507f4552433732313a206f776e657220717565727920666f72206e6f6e657869737460008301527f656e7420746f6b656e00000000000000000000000000000000000000000000006020830152604082019050919050565b6000612d10602e836136e3565b91507f45524337323155524953746f726167653a2055524920736574206f66206e6f6e60008301527f6578697374656e7420746f6b656e0000000000000000000000000000000000006020830152604082019050919050565b6000612d766002836136f4565b91507f227d0000000000000000000000000000000000000000000000000000000000006000830152600282019050919050565b6000612db66020836136e3565b91507f4552433732313a206d696e7420746f20746865207a65726f20616464726573736000830152602082019050919050565b6000612df66031836136e3565b91507f45524337323155524953746f726167653a2055524920717565727920666f722060008301527f6e6f6e6578697374656e7420746f6b656e0000000000000000000000000000006020830152604082019050919050565b6000612e5c602c836136e3565b91507f4552433732313a20617070726f76656420717565727920666f72206e6f6e657860008301527f697374656e7420746f6b656e00000000000000000000000000000000000000006020830152604082019050919050565b6000612ec26029836136e3565b91507f4552433732313a207472616e73666572206f6620746f6b656e2074686174206960008301527f73206e6f74206f776e00000000000000000000000000000000000000000000006020830152604082019050919050565b6000612f28602f836136e3565b91507f4552433732314d657461646174613a2055524920717565727920666f72206e6f60008301527f6e6578697374656e7420746f6b656e00000000000000000000000000000000006020830152604082019050919050565b6000612f8e600a836136f4565b91507f7b226e616d65223a2022000000000000000000000000000000000000000000006000830152600a82019050919050565b6000612fce6021836136e3565b91507f4552433732313a20617070726f76616c20746f2063757272656e74206f776e6560008301527f72000000000000000000000000000000000000000000000000000000000000006020830152604082019050919050565b6000613034600a836136f4565b91507f46495253545f574f5244000000000000000000000000000000000000000000006000830152600a82019050919050565b6000613074601d836136f4565b91507f646174613a6170706c69636174696f6e2f6a736f6e3b6261736536342c0000006000830152601d82019050919050565b60006130b46031836136e3565b91507f4552433732313a207472616e736665722063616c6c6572206973206e6f74206f60008301527f776e6572206e6f7220617070726f7665640000000000000000000000000000006020830152604082019050919050565b600061311a6005836136f4565b91507f434f4c4f520000000000000000000000000000000000000000000000000000006000830152600582019050919050565b6131568161387e565b82525050565b600061316882846127bd565b915081905092915050565b600061317f82856127bd565b915061318b82846127bd565b91508190509392505050565b60006131a382866127bd565b91506131af82856127bd565b91506131bb82846127bd565b9150819050949350505050565b60006131d482876127ee565b91506131e082866127bd565b91506131ec82856127ee565b91506131f882846127bd565b915061320382612b91565b915081905095945050505050565b600061321c82612a05565b915061322882846127bd565b915081905092915050565b600061323e82612aeb565b915061324a82846127bd565b915081905092915050565b600061326082612f81565b915061326c82856127bd565b91506132778261286d565b915061328382846127bd565b915061328e82612d69565b91508190509392505050565b60006132a582613027565b91506132b182846127bd565b915081905092915050565b60006132c782613067565b91506132d382846127bd565b915081905092915050565b60006132e98261310d565b91506132f582846127bd565b915081905092915050565b6000602082019050613315600083018461272d565b92915050565b6000608082019050613330600083018761272d565b61333d602083018661272d565b61334a604083018561314d565b818103606083015261335c818461274b565b905095945050505050565b600060408201905061337c600083018561272d565b613389602083018461314d565b9392505050565b60006020820190506133a5600083018461273c565b92915050565b600060208201905081810360008301526133c58184612784565b905092915050565b600060608201905081810360008301526133e78186612784565b90506133f6602083018561314d565b613403604083018461272d565b949350505050565b600060208201905081810360008301526134248161291f565b9050919050565b600060208201905081810360008301526134448161295f565b9050919050565b60006020820190508181036000830152613464816129c5565b9050919050565b6000602082019050818103600083015261348481612a45565b9050919050565b600060208201905081810360008301526134a481612aab565b9050919050565b600060208201905081810360008301526134c481612b2b565b9050919050565b600060208201905081810360008301526134e481612bd1565b9050919050565b6000602082019050818103600083015261350481612c37565b9050919050565b6000602082019050818103600083015261352481612c9d565b9050919050565b6000602082019050818103600083015261354481612d03565b9050919050565b6000602082019050818103600083015261356481612da9565b9050919050565b6000602082019050818103600083015261358481612de9565b9050919050565b600060208201905081810360008301526135a481612e4f565b9050919050565b600060208201905081810360008301526135c481612eb5565b9050919050565b600060208201905081810360008301526135e481612f1b565b9050919050565b6000602082019050818103600083015261360481612fc1565b9050919050565b60006020820190508181036000830152613624816130a7565b9050919050565b6000602082019050613640600083018461314d565b92915050565b6000604051905081810181811067ffffffffffffffff8211171561366d5761366c613a03565b5b8060405250919050565b600067ffffffffffffffff82111561369257613691613a03565b5b601f19601f8301169050602081019050919050565b60008190508160005260206000209050919050565b600081519050919050565b600081519050919050565b600082825260208201905092915050565b600082825260208201905092915050565b600081905092915050565b600061370a8261387e565b91506137158361387e565b9250827fffffffffffffffffffffffffffffffffffffffffffffffffffffffffffffffff0382111561374a57613749613976565b5b828201905092915050565b60006137608261387e565b915061376b8361387e565b92508261377b5761377a6139a5565b5b828204905092915050565b60006137918261387e565b915061379c8361387e565b9250817fffffffffffffffffffffffffffffffffffffffffffffffffffffffffffffffff04831182151516156137d5576137d4613976565b5b828202905092915050565b60006137eb8261387e565b91506137f68361387e565b92508282101561380957613808613976565b5b828203905092915050565b600061381f8261385e565b9050919050565b60008115159050919050565b60007fffffffff0000000000000000000000000000000000000000000000000000000082169050919050565b600073ffffffffffffffffffffffffffffffffffffffff82169050919050565b6000819050919050565b82818337600083830152505050565b60005b838110156138b557808201518184015260208101905061389a565b838111156138c4576000848401525b50505050565b600060028204905060018216806138e257607f821691505b602082108114156138f6576138f56139d4565b5b50919050565b60006139078261387e565b91507fffffffffffffffffffffffffffffffffffffffffffffffffffffffffffffffff82141561393a57613939613976565b5b600182019050919050565b60006139508261387e565b915061395b8361387e565b92508261396b5761396a6139a5565b5b828206905092915050565b7f4e487b7100000000000000000000000000000000000000000000000000000000600052601160045260246000fd5b7f4e487b7100000000000000000000000000000000000000000000000000000000600052601260045260246000fd5b7f4e487b7100000000000000000000000000000000000000000000000000000000600052602260045260246000fd5b7f4e487b7100000000000000000000000000000000000000000000000000000000600052604160045260246000fd5b6000601f19601f8301169050919050565b613a4c81613814565b8114613a5757600080fd5b50565b613a6381613826565b8114613a6e57600080fd5b50565b613a7a81613832565b8114613a8557600080fd5b50565b613a918161387e565b8114613a9c57600080fd5b5056fe416e204e465420772f20494420257320686173206265656e206d696e74656420746f2025734142434445464748494a4b4c4d4e4f505152535455565758595a6162636465666768696a6b6c6d6e6f707172737475767778797a303132333435363738392b2fa2646970667358221220f9aa2d034645934428adf5d1488588c9c63678c2bac336b2c857cd9f608673c864736f6c634300080000333c73766720786d6c6e733d27687474703a2f2f7777772e77332e6f72672f323030302f73766727207072657365727665417370656374526174696f3d27784d696e594d696e206d656574272076696577426f783d273020302033353020333530273e3c7374796c653e2e62617365207b2066696c6c3a2077686974653b20666f6e742d66616d696c793a2073657269663b20666f6e742d73697a653a20323470783b207d3c2f7374796c653e3c726563742077696474683d273130302527206865696768743d2731303025272066696c6c3d27626c61636b27202f3e3c7465787420783d273530252720793d273530252720636c6173733d27626173652720646f6d696e616e742d626173656c696e653d276d6964646c652720746578742d616e63686f723d276d6964646c65273e3c73766720786d6c6e733d27687474703a2f2f7777772e77332e6f72672f323030302f73766727207072657365727665417370656374526174696f3d27784d696e594d696e206d656574272076696577426f783d273020302033353020333530273e3c7374796c653e2e62617365207b2066696c6c3a2077686974653b20666f6e742d66616d696c793a2073657269663b20666f6e742d73697a653a20323470783b207d3c2f7374796c653e3c726563742077696474683d273130302527206865696768743d2731303025272066696c6c3d27272f3e3c7465787420783d273530252720793d273530252720636c6173733d27626173652720646f6d696e616e742d626173656c696e653d276d6964646c652720746578742d616e63686f723d276d6964646c65273e",
  "linkReferences": {},
  "deployedLinkReferences": {}
}